:020000022000DC
:1030000000000120B9960200E1960200E39602005A
:10301000E5960200E7960200E99602000000000033
:10302000000000000000000000000000EB9602001D
:10303000ED96020000000000EF960200F1960200FB
:103040007D5E0200F39602000D6D0200F396020011
:10305000F3960200F396020045620200F396020026
:10306000F3960200F3960200F3960200F396020034
:10307000F3960200F3960200F3960200F396020024
:10308000F39602008D410200F3960200F3960200CF
:103090002D420200F3960200459F0200F3960200C3
:1030A000F3960200F3960200F3960200F3960200F4
:1030B000F3960200F39602000000000000000000FA
:1030C000F3960200F3960200F3960200F3960200D4
:1030D000F3960200F3960200F3960200000000004F
:1030E00000000000000000000000000000000000E0
:1030F00000000000000000000000000000000000D0
:1031000000000000000000000000000000000000BF
:1031100000000000000000000000000000000000AF
:10312000000000000000000000000000000000009F
:10313000000000000000000000000000000000008F
:10314000000000000000000000000000000000007F
:10315000000000000000000000000000000000006F
:10316000000000000000000000000000000000005F
:10317000000000000000000000000000000000004F
:10318000000000000000000000000000000000003F
:10319000000000000000000000000000000000002F
:1031A000000000000000000000000000000000001F
:1031B000000000000000000000000000000000000F
:1031C00000000000000000000000000000000000FF
:1031D00000000000000000000000000000000000EF
:1031E00000000000000000000000000000000000DF
:1031F00000000000000000000000000000000000CF
:1032000010B5054C237833B9044B13B10448AFF320
:1032100000800123237010BDDC2C00200000000082
:1032200094C10200084B10B51BB108490848AFF320
:1032300000800848036803B910BD074B002BFBD082
:10324000BDE81040184700BF00000000E02C00203F
:1032500094C10200602C002000000000154B002BE0
:1032600008BF134B9D46A3F5803A00218B460F46BD
:103270001348144A121A07F04AF80F4B002B00D0DB
:1032800098470E4B002B00D09847002000210400E7
:103290000D000D48002802D00C48AFF3008006F066
:1032A000DDFF2000290004F041FD06F0C3FF00BF50
:1032B00000000800000001200000000000000000E5
:1032C000DC2C0020AC3C00200000000000000000CE
:1032D000704700BF00B583B0044B0093044A4023FD
:1032E00000F020F803B05DF804FB00BFF5320200E7
:1032F000F82C00208AB1F8B50F4614460A2600259E
:1033000022467919002004F061FE0544241A08B908
:10331000013E01D0002CF3D1F8BD7047704700BFCB
:1033200004F018BFF0B595B0002415460F460846C6
:103330001E4602F015FB384623460822089505A9CB
:103340001A9D09960D950A948DF82C400C9402F064
:103350006BFB9DF81430079806998DF8104003F028
:103360000302012A0290ADF80C102CD0022A04D0DE
:10337000384602F005FB15B0F0BDBDF81650C3F39A
:10338000C202C3F38003C5F389158DF80E208DF8B2
:103390000F300826082D2C4628BF08243346224625
:1033A0000EA9384602F040FB2D1B214608AB02AAAD
:1033B0000EA8264400F0E6FC002DEBD1384602F0C2
:1033C000DFFA15B0F0BDBDF814500598C5F38315AC
:1033D000C3F3C20EAA000EA9C3F38004C0F395265E
:1033E000082338468DF80EE08DF80F4002F01CFBE4
:1033F00008AB00932A4630460EA902AB00F02AFC27
:10340000B6E700BF10B5054CFFF78AFF2046042140
:1034100000F0E0FB0123637210BD00BF682A0020AA
:1034200008B5104B10480022FF21C3F818249960FA
:103430001A605A60C3F8142483F81C2402F048FA76
:1034400070B90A4B0A4A9A1AD20807D009490346AA
:103450000B5201339A4200F10C00F9D1002008BD53
:1034600008BD00BF382D0020A8B5020038C20200F8
:10347000E8C10200642C002021B9124A02EBC0000E
:103480000068704730B410490E4D491BC9080ED072
:103490000E4B5A88824218BF002205D10FE0DC890A
:1034A000844203F10C0305D001329142F7D1002090
:1034B00030BC704705EBC200006830BC704728463E
:1034C000FAE700BFE8C1020038C20200642C002005
:1034D000094B013903EBC00003290BD8DFE801F0E9
:1034E000020806040220704740797047007970474F
:1034F0000420704700207047E8C102002DE9F04F1A
:10350000874C626823689A4285B042D00023C4F891
:103510001834BFF34F8F6068A56800EA05030233D3
:1035200004EB8302111D127912F0030F024610D131
:103530000B884988C3F3891303EB911301331A44B1
:1035400005EA0203023304EB8306311D3679B60720
:10355000EED004EB8303511C5B680193294004EB1C
:10356000810103F00303C9680291022B02F10208F2
:103570006B4F12D0012B7BD0032B06D02368181A77
:1035800018BF012005B0BDE8F08FD7F81834002B24
:10359000F4D1002005B0BDE8F08FBDF806306148D9
:1035A000C3F38919B9F1500FCA46A8BF4FF0500AAA
:1035B0006AF38F130AF10801ADF8063002F08AF9B8
:1035C0000646002800F0948025EA080B0BF1010B59
:1035D00002F0C6F94FEA8B0B0023082201A93046FE
:1035E00002F0F4F9DA4540F28D80BBF1000F00F0F3
:1035F000818005EA080107EB8101CBEB0A050C315C
:1036000008235A463046EDB202F0E0F92A460BF1A3
:10361000080307F10C01304602F0D8F909F103075D
:1036200008EB9707D4F818343D4D002B5BD1D5F843
:1036300010544DB16B7A3146284613B12B681B6884
:1036400098476D68002DF5D1304602F099F904A82D
:10365000002300F80D3D01F08FFBD4F81834304AF8
:1036600003B957609DF8030001F0AEFB606885E781
:10367000BDF804302B48C3F38312062A28BF062264
:10368000911C62F389138900ADF8043002F022F92D
:10369000064668B302F064F90023082201A9304607
:1036A00002F094F9BDF8043013F4707F35D04FF078
:1036B000000A4FF0080908EA050104EB81014B46B6
:1036C0000C310422304602F081F9BDF804300AF1D1
:1036D000010AC3F3831308F10107534509F10409F3
:1036E000B846E8D89EE7304602F04AF9686845E7F0
:1036F000786843E7524607F10C010823304602F090
:1037000065F98BE705EA080107EB81010C315246A8
:103710000823304602F05AF980E7474682E700BFA7
:10372000382D0020A8B502002DE9F04F89B008AB74
:1037300000265B4C03F80D6D02901846A3680391B8
:10374000019301F019FBA5686168D4F800806B183B
:103750000133C8EB0303032B5ED805F10109B6461C
:10376000C8EB090904F5836C04F214470126A2464C
:103770005CE8003F43EA06024CE8002090F0000FAE
:10378000F6D157E8003F43EA060247E8002090F0F0
:10379000000FF6D101EA0503023304EB8302101D8A
:1037A000127912F0030F0A4613D103884088C3F33D
:1037B000891303EB901301331A4405EA0203023321
:1037C00004EB830B0BF104009BF804B01BF0030F18
:1037D000EBD004EB830302325B68059303F0030331
:1037E000012B57D0022B06D1BDF81630C3F3891335
:1037F000033302EB930257E8003F03EA0E0047E869
:10380000000B9BF0000FF6D113B1CAF8042011464B
:1038100009EB0103032BABD908EA0503023304EBE0
:1038200083039DF813001A7942F003021A7123688A
:103830000233236001F0C8FA019B029D08F10102E6
:103840001A4003EA080304EB8202023304EB830309
:10385000290CD1601A79C5F3001161F3820265F376
:10386000C5021A719A886FF389129A805A6803996F
:1038700061F39F221146012060F301015A60197122
:1038800094F81C341BB1FFF739FE0028FBD109B0B6
:10389000BDE8F08FBDF81430C3F383131A44AAE7D0
:1038A000382D00202DE9F04F89B008AB4FF000090A
:1038B00003F80D9D5D4C0291074618460392A668D9
:1038C00001F05AFAA5686168D4F800806B180133DA
:1038D000C8EB0303042B60D805F1010AC8EB0A0A00
:1038E00004F2144C4FF0010E0196514E56E8003F81
:1038F00043EA0E0246E8002090F0000FF6D15CE8A3
:10390000003F43EA0E024CE8002090F0000FF6D191
:1039100005EA0103023304EB8302101D127912F051
:10392000030F0A4615D1019E03884088C3F389130B
:1039300003EB901301331A4405EA0203023304EB4C
:10394000830B0BF104009BF804B01BF0030FEBD0CA
:10395000019604EB830302325B68059303F00303D3
:10396000012B5DD0022B06D1BDF81630C3F38913AD
:10397000033302EB93025CE8003F03EA09004CE8E2
:10398000000B9BF0000FF6D113B1284B11465A6083
:103990000AEB0103042BA8D9019E9DF8130008EA45
:1039A0000503023304EB83031A7942F003021A7110
:1039B00023680333236001F007FA08F1020108F1DC
:1039C00001023140324006EA080304EB810104EBB6
:1039D0008202023304EB8303039DCD60380CD06078
:1039E0001A79C7F3001161F3820267F3C5021A71F5
:1039F0009A88012060F389129A805A68029961F3CB
:103A00009F22114660F301015A60197194F81C3429
:103A10001BB1FFF773FD0028FBD109B0BDE8F08FA3
:103A2000BDF81430C3F383131A44A4E7382D0020E3
:103A3000503100202DE9F04F8BB00AAD0026644CC8
:103A400005F80D6D029005932846A3680391019334
:103A5000049201F091F9A5686168D4F800806B18B0
:103A60000133C8EB0303052B5ED805F10109B64607
:103A7000C8EB090904F5836C04F214470126A24639
:103A80005CE8003F43EA06024CE8002090F0000F9B
:103A9000F6D157E8003F43EA060247E8002090F0DD
:103AA000000FF6D105EA0103023304EB8302101D77
:103AB000127912F0030F0A4613D103884088C3F32A
:103AC000891303EB901301331A4405EA020302330E
:103AD00004EB830B0BF104009BF804B01BF0030F05
:103AE000EBD004EB830302325B68079303F003031C
:103AF000012B66D0022B06D1BDF81E30C3F389130B
:103B0000033302EB930257E8003F03EA0E0047E855
:103B1000000B9BF0000FF6D113B1CAF80420114638
:103B200009EB0103052BABD908EA0503023304EBCB
:103B300083039DF81B001A7942F003021A7123686F
:103B40000433236001F040F9019B029E049F08F1B9
:103B50000200184008F1030108F1010219401A405F
:103B600004EB800003EA080304EB810104EB82020A
:103B70000233C76004EB83030598C860350CD56039
:103B80001A79C6F3001161F3820266F3C5021A7155
:103B90009A88022161F389129A805A68039961F325
:103BA0009F221146012060F301015A60197194F8B7
:103BB0001C341BB1FFF7A2FC0028FBD10BB0BDE801
:103BC000F08FBDF81C30C3F383131A449BE700BF8A
:103BD000382D002030B4144DD5F81044002154B1D4
:103BE000237A8B4214D0234602E01A7A8A420FD0FD
:103BF0005B68002BF9D10172D5F810340A4A7BB109
:103C00005B684360D2F810345860084630BC704797
:103C100001310A29E3D14FF0FF31084630BC70472B
:103C2000C2F810044360F0E7382D002038B5084B87
:103C3000D3F81044012583F81C543CB12368657205
:103C400020465B6898476468002CF7D138BD00BFF8
:103C5000382D00202DE9F04784B01D460C9C002330
:103C600094F80C802373EB7981460E4617460BB30C
:103C7000062F0FD8DFE807F0363B414804515E00BD
:103C8000F168B06896E80C00019100904946204622
:103C900001F05EF9EB792BB92B7AEBB93349204669
:103CA00001F056F9204601F047F984F80C8004B081
:103CB000BDE8F0872B7A002B4BD1AA792C4BA88832
:103CC00053F822A00021FFF7D7FB524603462949AB
:103CD000204601F03DF9CBE7274A2849204601F06C
:103CE00037F9DBE74946204601F032F9D2E732687E
:103CF0004946204601F02CF9CCE7494696E80C00ED
:103D0000204601F025F9C5E7B16896E80C00204689
:103D10000091494601F01CF9BCE7B068F7683169C9
:103D200096E80C0002918DE881004946204601F09A
:103D30000FF9AFE77069316996E80C000390B0683D
:103D4000F76802918DE881004946204601F000F9AC
:103D5000A0E7A979A888FFF7BBFB094B074953F8EF
:103D60002020204601F0F4F8A7E700BF0CB60200BF
:103D7000BCB50200F8B5020004B60200F4B50200BA
:103D8000D0B50200082952D82DE9F0471D4600237E
:103D900095F80CA02B73D379914680460E46002BE4
:103DA00046D0002406E018F80420013401F0D0F8D1
:103DB000082C0AD0A64231492846F4D83049284672
:103DC000013401F0C5F8082CF4D12E49284601F041
:103DD000BFF8002411E018F8047006F071FA3844B6
:103DE0002949437813F0970F14BF3A462E222846EC
:103DF000013401F0ADF8082C08D0A642234928462A
:103E0000E9D8013401F0A4F8082CF6D199F807306C
:103E100013B999F80830F3B91D49284601F098F80C
:103E2000284601F089F885F80CA0BDE8F0877047B6
:103E3000137AB3B999F80620164BB9F8040053F871
:103E400022400021FFF718FB22460346124928466C
:103E500001F07EF8A5E7114A1149284601F078F8EB
:103E6000DAE791799088FFF733FB0E4B0C4953F852
:103E70002020284601F06CF8DCE700BF10B60200F5
:103E800018B602001CB6020020B6020000B60200FE
:103E90000CB60200BCB50200F8B5020004B6020080
:103EA000F4B50200D0B502002DE9F84F244B1A7882
:103EB0008AB3DFF890B0DFF89090DFF890A000248C
:103EC000012703E00134E4B2944224D226B2D9F8A7
:103ED0000050DBF8003015F8360007FA00FE1EEA45
:103EE000030F05EBC608EDD0164A23EA0E03136054
:103EF00002F09EF915F83650DAF8003007FA05F6A8
:103F0000334000FA05F6B34207D00D4B01341A785E
:103F1000E4B29442DAD3BDE8F88FD8F80430002B2D
:103F2000F3D098F80110A1F10101B1FA81F149092A
:103F3000091AB1FA81F1490928469847E5E700BF17
:103F400030320020583200202C3200205432002021
:103F500070B50646114800F0B9FD40B9104D012476
:103F60002B68B4401C4203D023EA04042C6070BDCB
:103F7000304602F05DF90B4A136860B123432E68A6
:103F80000949136034432C60044809680022BDE8E5
:103F9000704000F045BD23EA0403F0E7343200200E
:103FA000583200205432002028320020042A01D840
:103FB000072070472DE9F04182B088460546174634
:103FC00002F002F8002834D01C4C1D481D491E4A3E
:103FD0001E4B2560002608F1FF340F6080F800803A
:103FE00016601E60E4B20327B8F1000F03D11AE097
:103FF000DBB2C4B11C4623B205EBC30215F8330093
:104000009378134A8DF8053001A98DF804708DF866
:1040100006608DF8076001F0E1FF631E0028E7D01D
:1040200002B0BDE8F0810B4A0B48002100F0E6FC2D
:10403000F6E701F087FF0028C6D0F1E72C32002018
:104040003032002028320020543200205832002024
:10405000513F0200A93E020084B6020070B5084D2F
:104060002B785BB1074E00243368012113F834002C
:1040700002F07CF82B780134A342F5D8002070BD03
:10408000303200202C32002000B585B00023039090
:10409000194601AA44F20100ADF80430029300F081
:1040A00003F805B05DF804FB10B5FFF7BFFDFFF79F
:1040B00025FA0028FBD1104C10492088000440F05C
:1040C0000100FFF731FB0E4B1B68DB0700D5FFDE5D
:1040D00020880C49000440F00200FFF725FBBFF3E5
:1040E0004F8F0949094BCA6802F4E0621343CB6061
:1040F000BFF34F8F00BFFDE7642C002088B602009D
:10410000F0ED00E094B6020000ED00E00400FA05D6
:1041100059B10AB909207047531E1A40FAD182607A
:1041200001608380C260104670470E20704700BF58
:1041300010B48468C26803468088121B904203D280
:1041400004205DF8044B7047DA681C6802400020C8
:10415000A154DA680132DA605DF8044B704700BFA1
:1041600003468068DA68904201D10520704710B498
:104170009A6898881C6802400020A25C0A709A68BD
:1041800001329A605DF8044B704700BFF8B5204AD1
:10419000204B0025C2F84051C2F84451C2F84851A2
:1041A000C2F84C51C2F80051C2F804511B6813B355
:1041B0001949D2F804250C68141B1A6824F07F44AE
:1041C000A2422F4609D8197CDE69A41A154499B970
:1041D0001EB133461A68A242F5D9104B10491A781D
:1041E0000B789A420DD00F490F4A41F823504FF4F3
:1041F0008013C2F80031F8BD1F745A69986990475E
:10420000E6E7531CDBB2022B08BF00230B70EAE782
:1042100000100140603200205C3200206432002037
:10422000653200207433002000E100E02DE9F04FFA
:10423000884A89491378097899428BB037D001337D
:10424000DBB2022B08BF002384491370844A0E6836
:10425000029152F82300834905910B6802993218A4
:10426000002522F07F420A602C462946AE46ABB1BB
:104270001A68824200F2E681DD68C3F800E0801A25
:104280001444DA6935B1371927F07F47D9619D6049
:104290005F60194613460125002BE9D1002D40F03F
:1042A000DC820023069301230893069A08E06D4BF5
:1042B00005931B68694A02920021069308911A46E9
:1042C000694BDFF8AC811B780393029B1F68059B49
:1042D0001B68BA461C460F4600230993C346079342
:1042E000994618464FF0010E0193A4463FB37D68EE
:1042F000BE683946FF695D4BCAEB050424F07F4474
:104300009C423CD8A3190B604860886081F810E09B
:10431000C861002A68D015689D4249D2164603E05C
:1043200025689D4234D22646F4695B1B002CF7D1E8
:10433000CC610B601446F1612246002FD7D198F86A
:10434000003098F80110994200F09480591C03EB5A
:1043500043039BF8024008EBC303C9B28C421C79AB
:104360008BF8001008BF8BF80070022C99684ED0B3
:10437000032C3FD0012C24D014462246DDE7C5EBA8
:104380000A0525F07F45B54209D2731B0B60BBE7D8
:10439000ED1A2560CC610B601446F161CCE7086032
:1043A0004860886081F810E0C861EAB115680023B0
:1043B000EB1A0C4613608C46CA614FF00109224685
:1043C000BBE70C7C0494002CD6D1DD684D601E69DF
:1043D0008E605C69CC609B698B61039B002B8AD0EB
:1043E000049B4B601D4686E70C468C464FF0010946
:1043F0002246A2E70AB9BFE71A46D3691074002B18
:10440000FAD11C469C464FF00109224695E752B16D
:10441000914200F00B81134602E0B14207D03346CF
:10442000DE69002EF9D114460874224685E79942C8
:1044300000F0FE801446F5693668DD6115B12B6821
:1044400033442B60019B0874A24218BF01230193DF
:10445000EBE700BF64320020653200205C320020B0
:10446000743300206032002066320020FEFF7F009F
:10447000683200205746DDF804A0B9F1000F40F083
:104480004981079B002B40F0E581099B002B40F000
:10449000DC81BAF1000F03D1069B9A4200F03F8104
:1044A000002A00F041816C49029BD1F804051B6889
:1044B0006A4C17682578C21A22F07F420332002D19
:1044C00051D1674DDFF89CC1DFF89CE14FF4803695
:1044D000C1F84463C1F804634FF40036C5F8806145
:1044E0002E6001250D60DCF800602F2100BF00BFA9
:1044F00000BF00BF00BF00BF00BF00BF76452FD088
:1045000000BF00BF00BF00BF00BF00BF00BF00BFB3
:1045100000BF00BF00BF00BF00BF00BF00BF00BFA3
:1045200000BF00BF00BF00BF00BF00BF00BF00BF93
:1045300000BF00BF00BF00BF00BF00BF00BF00BF83
:1045400000BF00BF00BF00BF00BF00BF00BF00BF73
:1045500000BF00BF00BF00BF00BF00BF00BF00BF63
:104560000139C3D1257097422CBFDA199A183A49FC
:1045700022F07F43C1F84035D1F80425121A1B1AE6
:1045800022F07F4223F07F4303329A4248D9D1F888
:104590000435344AC1F84035126833492F2300BF2F
:1045A00000BF00BF00BF00BF00BF00BF00BF8A4206
:1045B0002FD000BF00BF00BF00BF00BF00BF00BFC3
:1045C00000BF00BF00BF00BF00BF00BF00BF00BFF3
:1045D00000BF00BF00BF00BF00BF00BF00BF00BFE3
:1045E00000BF00BF00BF00BF00BF00BF00BF00BFD3
:1045F00000BF00BF00BF00BF00BF00BF00BF00BFC3
:1046000000BF00BF00BF00BF00BF00BF00BF00BFB2
:1046100000BF013BC3D1124B4FF40032C3F800215D
:10462000124A002313700BB0BDE8F08F16461346F4
:10463000D2F81C90B9F1000F1AD0CC464C464FF07E
:104640000109F8E6002D62D1121A1A6006930123BF
:104650000893069A34E600BF001001407C33002026
:1046600000E100E0842A00200024F40066320020EB
:104670007B4C7C4DC4F808E07B4C4FF02F0C246839
:1046800000BF00BF00BF00BF00BF00BF00BF00BF32
:10469000AC422FD000BF00BF00BF00BF00BF00BFB3
:1046A00000BF00BF00BF00BF00BF00BF00BF00BF12
:1046B00000BF00BF00BF00BF00BF00BF00BF00BF02
:1046C00000BF00BF00BF00BF00BF00BF00BF00BFF2
:1046D00000BF00BF00BF00BF00BF00BF00BF00BFE2
:1046E00000BF00BF00BF00BF00BF00BF00BF00BFD2
:1046F00000BF00BFBCF1010CC2D1012425460994C2
:10470000CC464C46CA4603950795A94693E6059CB8
:10471000236099E7059B1946C1F800C0B1E6089BE4
:10472000002B3FF47DAFBBE64D49504B4E4E4D4CF8
:104730004FF480304FF400370125C3F88070C1F882
:1047400048032F23C1F808034D6030681E4600BFA0
:1047500000BF00BF00BF00BF00BF00BF00BFA0423E
:104760002FD000BF00BF00BF00BF00BF00BF00BF11
:1047700000BF00BF00BF00BF00BF00BF00BF00BF41
:1047800000BF00BF00BF00BF00BF00BF00BF00BF31
:1047900000BF00BF00BF00BF00BF00BF00BF00BF21
:1047A00000BF00BF00BF00BF00BF00BF00BF00BF11
:1047B00000BF00BF00BF00BF00BF00BF00BF00BF01
:1047C00000BF013EC3D18D6002990A6000BF00BFE7
:1047D00000BF00BF00BF00BF00BF00BFA0422FD07E
:1047E00000BF00BF00BF00BF00BF00BF00BF00BFD1
:1047F00000BF00BF00BF00BF00BF00BF00BF00BFC1
:1048000000BF00BF00BF00BF00BF00BF00BF00BFB0
:1048100000BF00BF00BF00BF00BF00BF00BF00BFA0
:1048200000BF00BF00BF00BF00BF00BF00BF00BF90
:1048300000BF00BF00BF00BF00BF00BF00BF00BF80
:10484000013BC3D10A4B1A70EAE60A4B9DF80C10E3
:1048500019701EE6029B1F6017E6059A136020E59B
:10486000001001400024F400842A002000E100E050
:104870007C33002066320020F0B4564B564A574E27
:10488000574C4FF480304FF400310125C2F88010AE
:10489000C3F848032F21C3F808035D6030680E4653
:1048A00000BF00BF00BF00BF00BF00BF00BF00BF10
:1048B000A0422FD000BF00BF00BF00BF00BF00BF9D
:1048C00000BF00BF00BF00BF00BF00BF00BF00BFF0
:1048D00000BF00BF00BF00BF00BF00BF00BF00BFE0
:1048E00000BF00BF00BF00BF00BF00BF00BF00BFD0
:1048F00000BF00BF00BF00BF00BF00BF00BF00BFC0
:1049000000BF00BF00BF00BF00BF00BF00BF00BFAF
:1049100000BF00BF013EC3D19D6000BF00BF00BF0C
:1049200000BF00BF00BF00BF00BFA0422FD000BF2C
:1049300000BF00BF00BF00BF00BF00BF00BF00BF7F
:1049400000BF00BF00BF00BF00BF00BF00BF00BF6F
:1049500000BF00BF00BF00BF00BF00BF00BF00BF5F
:1049600000BF00BF00BF00BF00BF00BF00BF00BF4F
:1049700000BF00BF00BF00BF00BF00BF00BF00BF3F
:1049800000BF00BF00BF00BF00BF00BF00BF0139B4
:10499000C3D1144E144D154C1549164F00203070DC
:1049A000286020704FF48015E0240B2608704870B2
:1049B0008E7038701049C2F8805182F81443156027
:1049C000C3F8080582F81143D3F804350B60F0BC36
:1049D000704700BF0010014000E100E0842A002081
:1049E0000024F4007C330020603200206432002078
:1049F00068320020653200205C320020074B9B7833
:104A00000BB9082070473AB130B10368187C002810
:104A1000F7D159745A6170470720704768320020F7
:104A20002DE9F043264CA37883B01BB9082003B0CE
:104A3000BDE8F0830028F9D0042903D8072003B08B
:104A4000BDE8F0834369002BF0D0064602A8737CD2
:104A50000025012B00F8015D0CBF8946A946904650
:104A60000F4600F089F96378A07821785A1CD2B2F9
:104A7000904208BF2A4691421BD003EB430304EB4C
:104A8000C30301200F4918719E60D1F804159DF8E9
:104A90000700D9601F61C3F81490C3F818806270D2
:104AA00000F092F9084B4FF480122846C3F8002119
:104AB000BDE79DF8070000F087F90420B7E700BFC5
:104AC000683200200010014000E100E070B51B4C8E
:104AD000A37882B013B9082002B070BD0028FAD0C4
:104AE0004369002BF7D0064602A8002500F8015DB7
:104AF000357400F041F96278A0782178531CDBB25C
:104B0000984208BF2B46994212D002EB420204EBB6
:104B1000C20202219DF8070096601171637000F0D7
:104B200053F9074B4FF480122846C3F80021D3E70E
:104B30009DF8070000F048F90420CDE76832002016
:104B400000E100E030B50478012C83B01FD010D311
:104B5000022C0CD1C36827492748019301228DF804
:104B6000004001F08FFF254B68461B68984703B053
:104B700030BD23492348FFF7F3FAF0B102A803231D
:104B800000F8083D1D4B1B68984703B030BD4368D3
:104B90001D4D19782846FFF7CBFAA0B9AA68EB6833
:104BA0009A421ED1A968EB68AA885B1A9A4212D26F
:104BB000164B01221A7003B030BD012210490E4875
:104BC00001F0A8FED3E70D4B01908DF800401B6863
:104BD00068469847E6E701220649074801F052FF78
:104BE000C5E702AB054A03F8080D1268184690475E
:104BF000D8E700BF88330020742A002084330020C7
:104C0000803300208C330020A03300209C33002010
:104C10002DE9F0432F4C89B02260002952D00C4678
:104C200080468A882C4809689946FFF771FA10B1C6
:104C300009B0BDE8F083A289A1682848FFF768FAA7
:104C40000028F5D1264D98F810E0D8F80C70D8F867
:104C500008600FCD6C460FC495E80F0098F811500E
:104C600002971EF1000E18BF4FF0010E002D84E8D0
:104C70000F00D8F80050D8F804401A4A1A488DF8A6
:104C80001C9014BF0E2300238DF815306946D8F808
:104C900014308DF814E0069303968DE8300001F08F
:104CA0004BFD0028C4D1D8F80030104A01331070F1
:104CB000BED09DF81D304BB101220D490A4801F0CC
:104CC000E1FEB5E7072009B0BDE8F083064801F032
:104CD000F7FFF1E784330020A03300208C3300205D
:104CE000A4B60200454B0200742A00209C33002029
:104CF0008833002070B50B4C01460B482678FFF72F
:104D00002FFA05460EB9284670BD00230122074937
:104D10000748237001F0B6FE0028F4D0FFF7B4F97D
:104D2000284670BD9C330020A0330020883300202B
:104D3000742A002010B501460C48FFF7F9F9044623
:104D400008B1204610BD0A4801F090FE0028F8D1B5
:104D500008490648FFF704FA0028F2D10122054964
:104D60000348BDE8104001F0D5BD00BF8C330020E2
:104D7000742A002080330020F0B4EFF3108472B660
:104D80000E4B9A68B2B90E4901259D60D1F880702A
:104D90000C4D2E463D401D60C1F88060D1F8845016
:104DA0005D604FF0FF33C1F88430027004B962B621
:104DB000F0BC704701230370F8E700BF243C0020DB
:104DC00000E100E0FC06FFBD094B9A6872B168B9CA
:104DD00010B4EFF3108272B606491C680C605C6870
:104DE0004C60986002B962B65DF8044B704700BF32
:104DF000243C002000E100E030B482B050E8023FE3
:104E00001FFAA3F5C488A54202BFBFF32F8F00226B
:104E10000DE0C48925448489A54228BF2D1BC3EA1F
:104E2000054540E80254002CE8D14FF001028DF80E
:104E300003200193019B9DF803200B602AB14B884E
:104E40000068184402B030BC704702F0FF031846F7
:104E500002B030BC704700BF0A884B889A4201D02C
:104E60000020704750E8022FC2EA224240E80223A5
:104E7000002BF7D101207047B8B130B44168826887
:104E80000468521AD2B2531E2160DBB242B10168EB
:104E90000A685C1E551C0D601370E3B2FF2BF6D13F
:104EA00003680020187130BC70470E20704700BFA7
:104EB00070B582B002AB002503F8015D04461846C8
:104EC000FFF75AFF236861681A688A4210D9511E99
:104ED00019602168A3680E680879258A12F8012CE8
:104EE000E4689B1BDBB2984205FB024538BF0B719F
:104EF0009DF80700FFF768FF284602B070BD00BFAD
:104F000030B583B002AB002203F8012D05461846E8
:104F10000C46FFF731FF2A681368591C1160E968D5
:104F20002A8A641AB4FBF2F41C709DF80700FFF79C
:104F30004BFF03B030BD00BF826802B9704710B5A7
:104F4000044643690168006998470023A36010BDC7
:104F50000EB400B582B0039929B102AA04AB42F89D
:104F6000043D00F095F802B05DF804EB03B0704723
:104F70002DE9F84F1746B942884606461D46DDF82A
:104F800028B00B9A7DD30B464FF00109B3FBF7F322
:104F90009F4209F10109F9D9A94538BFA94612F084
:104FA000010A02D1BBF1000F49D1B268012402E02D
:104FB000013D07FB04F4012DFAD8B8FBF4F18F4250
:104FC000F7D9324D05E0B4FBF7F4A4B1B8FBF4F126
:104FD000B268685C531CB36033689854B2687368F5
:104FE0009A4201FB1488EED33046FFF7A5FFB4FBCD
:104FF000F7F4002CEAD1BAF1000F16D0BBF1000F84
:1050000033D0CB4588BF20243ED9B3683268591CC1
:10501000B160D454B26873689A420BF1FF3B06D278
:10502000BBF1000F09D0D945EFD3BDE8F88F30466A
:10503000FFF782FFBBF1000FF5D1BDE8F88F9307B2
:105040001AD42024D945B0D2B2683368511CB1605B
:105050009C54B26873689A420BF1FF3B07D2BBF1D4
:10506000000FA3D0D945F0D3A0E7BDE8F88F3046B4
:10507000FFF762FFB268F2E7002D0CBF3024202456
:10508000E0E74FF0010987E7BDE8F88FCCB60200F2
:10509000002900F061822DE9F04F064685B0914667
:1050A0000C460B78DFF8ECA40DE0B2683168501CB8
:1050B000B0608B54B26873689A4280F0D3802378D2
:1050C000002B00F0BA800134002B00F0B680252BB5
:1050D000EBD14FF00008214614F8013B2D2B00F0D6
:1050E000BB80302B00F0BB802B2B00F0AD802A2B37
:1050F00000F0BC80A3F13005EAB2092A98BF013163
:1051000002D9A6E1A2F130050C4611F8013BA3F14A
:10511000300005EB8502092803EB4202F2D91A465A
:105120002E2A00F0AF80002701E014F8012F02F0D2
:10513000FB03682BF9D0253A532A79D8DFE812F01F
:1051400076017800780078007800780078007800A0
:10515000780078007800780078007800780078008F
:10516000780078007800780078007800780078007F
:10517000780078007800780078007800780078006F
:10518000780078007800780078007800780078005F
:10519000780078007800780078007800780078004F
:1051A0007800780078006601780078007800780050
:1051B0007800780078007800780078005101F900D4
:1051C0007800780078007800F9007800780078009E
:1051D000780078007800540078007800C9007800E2
:1051E000B900780078006601D9F80020131DC9F8CD
:1051F0000030B36831681568581C3022B060CA545A
:10520000B3687268934280F0AE813268581C78218E
:10521000B060D154B26873689A4280F0A0810022D5
:10522000082301922946009310223046FFF7A0FE82
:1052300001342378002B7FF446AF337B002B40F002
:10524000028105B0BDE8F08F214614F8013B2D2BFB
:1052500048F004087FF445AF48F001083BE748F008
:10526000020838E73046FFF767FE28E7D9F8003034
:105270001A1DC9F800204A781D682E2A01F1010480
:105280007FF451AF6278A2F13003092B04F10104DD
:105290004FF000073FF64BAF07EB870702EB4707DE
:1052A00014F8012FA2F13003092BA7F13007F3D92D
:1052B0003DE7D9F800301A1DC9F800201968CDF86B
:1052C00004803B4600950A223046FFF751FE013428
:1052D000AFE7D9F800301A1DC9F8002018F0010F07
:1052E0001F6840F0BD80002F00F05281384605F065
:1052F00037F88046454540F2FB80002D00F0F880ED
:105300004FF0200B05E0454540F2F280002D00F003
:10531000EF80B2683368511CB16003F802B0B26824
:1053200073689A4205F1FF35EDD33046FFF704FE6E
:10533000E9E7D9F800301A1DC9F80020D3F800B009
:105340008BEAEB73A3EBEB73092B4FF0010108DD44
:105350008AFB0302DB17C3EBA203092B01F1010156
:10536000F6DCB94238BF394635B1BBF1000F02DB7C
:1053700018F0040F00D0013D18F0020F6DD118F0A5
:10538000010F17D1002D00F0E8808D4288BF202347
:1053900010D9B268501CB06030688354B26870682D
:1053A000824205F1FF3580F08A80002D00F0D58023
:1053B0008D42EED8BBF1000FC0F2DA8018F0040F76
:1053C00040F0858008F00303022B00F0A4808DE8F4
:1053D00020013B4659460A223046FFF7C9FD0134F9
:1053E00027E7D9F80020131DC9F80030B3683168E9
:1053F0001278581CB060CA54B26873689A42FFF4BD
:1054000017AF3046FFF798FD013412E7D9F80030A6
:105410001A1DC9F800201968CDF804803B46009594
:1054200010223046FFF7A4FD013402E7B36832686A
:10543000591CB1604FF02501D154B26873689A428B
:10544000DFD20134F5E6304605B0BDE8F04FFFF796
:1054500073BD1A460C46002562E6002FAAD08EE7DF
:10546000B846C7EB080B18F8012B8AB1B16833684E
:10547000481CB0605A54B26873689A42F1D33046FF
:10548000FFF75AFDC7EB080B18F8012B002AEDD1E6
:105490005D457FF6CDAE202702E05D457FF6C8AEC4
:1054A000B2683368511CB1609F54B26873689A4205
:1054B00005F1FF35F1D33046FFF73EFDEDE730460D
:1054C00003930291FFF738FD039B02996DE7B268E1
:1054D000531CB36033682B209854B26873689A42A7
:1054E000FFF470AF30460291FFF726FD029969E79D
:1054F000013F17F8013F002B3FF49AAEB2683168C4
:10550000501CB0608B54B26873689A42F1D3304635
:10551000FFF712FDEDE7002F7FF459AF002D35D0D6
:105520008D4288BF30237FF652AFB268501CB06006
:1055300030688354B2687068824205F1FF3503D247
:1055400025B38D42F1D842E7304603930291FFF72D
:10555000F3FC039B0299F3E7704700252AE73046E6
:10556000FFF7EAFC5BE63046FFF7E6FCB3684CE683
:10557000B268531CB36033682D209854B2687368C6
:105580009A42CBF1000BFFF41DAFABE700251EE7FD
:10559000B846AFE66766666670B528B103681BB1AA
:1055A000DB69BDE8704018470B4C0C4B0C4D1B1BC6
:1055B000A5FB03352D090CD005EB850504EB85050E
:1055C00023682046143413B1DB69984718B9AC42FC
:1055D000F6D1002070BD70BDDC2C0020DC2C00203A
:1055E000CDCCCCCC29DF704728DF7047034B187A2D
:1055F0000122B0FA80F05A7440097047C833002085
:1056000030B5354C237A87B0002B51D0334B1B6813
:10561000022222721A79002A2ED0012A20D019687B
:105620008A68C2B1002205920392019204929A689C
:105630000592032202921A79002A44D0012A07D146
:10564000DA685B6904931303022203938DF8042044
:105650008B6801A8984700232372636007B030BDB0
:10566000D8681A691044FFF7BFFFC8B11128D6D116
:105670000123237207B030BD9D695A69D968186942
:10568000521BB2F5805F28BF4FF480529208012A66
:1056900038BF012229442844FFF7A4FF0028E5D1A0
:1056A000237C002BE6D10146022000F01DF8E1E743
:1056B0000B490C48FFF7A0FB084B18600346002875
:1056C000A6D16060D6E71A695B69039201208DF864
:1056D00004000493BCE700BFC8330020C43300209B
:1056E000C0330020B033002010B5354C237A012B95
:1056F00086B00AD0022B0CD1022810D0032804D186
:10570000E3680133082B1CD8E360637C1BB104F011
:10571000B1FB06B010BDFFF773FF06B010BD294BFB
:1057200000221B68E2601A79002A3BD0012AECD1E2
:105730001A69596901328A421A61E6D10020207241
:1057400005E0204B00221B68E26022720D201968E0
:105750008A6872B1002205920392019204929A68BB
:10576000029005921A79AAB1012A0AD08B6801A881
:10577000984715491548FFF76FFB637C002BC6D18E
:10578000C9E7DA685B6904931303022203938DF877
:105790000420EBE71A695B69039201208DF804008D
:1057A0000493E3E79A695969881AB0F5805F94BF5A
:1057B000121802F5805291429A61A6D1BEE700BF4D
:1057C000C8330020C4330020C0330020B033002091
:1057D00000F0FD03012B00D0704730B5384CA0F12C
:1057E0000100B0FA80F0237A4009002287B02074CB
:1057F0006274002B48D0334B1B68022222721A7944
:10580000002A2ED0012A18D019688A6882B1002295
:1058100005920392019204929A68059203220292E1
:105820001A79002A44D0012A39D08B6801A89847F8
:1058300000232372636007B030BDD8681A69104432
:10584000FFF7D2FE28B11128DED10123237207B061
:1058500030BD237C002BFAD101460220FFF744FF24
:10586000F5E79D695A69D9681869521BB2F5805FDE
:1058700028BF4FF480529208012A38BF01222944E0
:105880002844FFF7AFFEDDE70F491048FFF7B4FAF1
:105890000C4B186003460028AFD16060D7E7DA6888
:1058A0005B6904931303022203938DF80420BCE781
:1058B0001A695B69039201208DF804000493B4E730
:1058C000C8330020C4330020C0330020B033002090
:1058D000FFF7D2BA2DE9F041B0F81080A8F1040822
:1058E0004144CF1C0646B7FBF8F7FFF7E1FA80B357
:1058F000FFB200250123013F0446A0F806800660A0
:105900000571437128D0804609E06379AF4203F105
:1059100001036371C8F80000066080461CD0304661
:10592000FFF7C6FA01350028EFD16679721E2346CB
:1059300003D0013082421B68FBD81F684EB100259E
:1059400023682146013538461C46FFF7D9FAAE4296
:10595000F6D10020BDE8F0812046BDE8F08100BF0F
:1059600010B40430012350E8002F02EB030140E89B
:10597000001494F0000FF6D15DF8044B704700BF9F
:105980000146021DF8B5012052E8004FA4EB0003C8
:1059900042E8003595F0000FF6D113F0FF0300D078
:1059A000F8BD4E79701E0A4603D001339842126842
:1059B000FBD81768002EF3D000240D680134384658
:1059C000FFF79EFAA6422946F7D1F8BD2DE9F84324
:1059D0000446181DE688B0FBF6F30F46904606FB1A
:1059E000130013B1013B2468FCD1351A454528BF8B
:1059F0004546B8F1000F15D04FF000092044C5EB23
:105A000008082A4607EB0901043004F075FC4645F6
:105A1000A944246835464FF0000028BF4546B8F138
:105A2000000FEBD1BDE8F8832DE9F843C6880433B5
:105A300004460F46B3FBF6F0904606FB103110B15A
:105A400001382468FCD1751A454528BF4546B8F190
:105A5000000F15D04FF000092144C5EB08080431B0
:105A60002A4607EB090004F047FC4645A944246890
:105A700035464FF0000128BF4546B8F1000FEBD185
:105A8000BDE8F88301600B6843604A68934204BF35
:105A900000234360704700BF426842B101688B68D1
:105AA000134443604A68934204BF00234360704735
:105AB00030B4184DA5F1F002AB1ADB1003EBD37331
:105AC0005B1002EBC30152F83330984228BF0C46FA
:105AD00005D311E052F8333098420CD221468B1A8C
:105AE000DB1003EBD3735B10914202EBC304F1D8DC
:105AF000094830BC70470D46984204D904F10802A9
:105B0000AA42D9D3F4E76068034B002808BF1846BF
:105B1000EFE700BFE0BA0200E0BA020070B5161E5F
:105B200007DD0C468D1914F8010BFFF703F9A542A8
:105B3000F9D1304670BD00BF10B50C462046FFF7C6
:105B4000D9F80528FAD0012010BD00BF10B40023F9
:105B5000012401E0202B0AD004FA03F2024299B298
:105B600003F10103F6D008465DF8044B70474FF689
:105B7000FF705DF8044B704798B191B130B40238B2
:105B8000002402E00134202C0AD030F8025F954254
:105B9000F8D13BB10A68012303FA04F414430C6002
:105BA00030BC70470B68012202FA04F423EA0403B4
:105BB0000B60F5E770B49DF80C60C0B1B9B1B2B13B
:105BC0000238002402E00134202C10D030F8025FAB
:105BD0009D42F8D1012303FA04F401EB820246B995
:105BE000E4430B68234041F8043B9142F9D170BC77
:105BF00070470B68234341F8043B8A42F7D00B6897
:105C0000234341F8043B8A42F3D1F0E7F0B491B169
:105C100000252B46012606FA03F4144205D000EBBA
:105C2000450431F81370A78001350133202BF2D1E0
:105C30000560F0BC70470D460560F0BC704700BFC2
:105C4000064A4FF0A043105CD3F8043523FA00F065
:105C500000F0010080F00100704700BFF8BA0200B8
:105C6000044B195C4FF0A04201238B40C2F80C3565
:105C7000704700BFF8BA0200044B195C4FF0A04215
:105C800001238B40C2F80835704700BFF8BA020004
:105C90004FF0A04310B44FF480204FF400344FF481
:105CA00000214FF48012C3F80845C3F80805C3F873
:105CB0000815C3F808255DF8044B70474FF0A04362
:105CC00010B44FF480204FF400344FF400214FF40F
:105CD0008012C3F80C45C3F80C05C3F80C15C3F8C3
:105CE0000C255DF8044B7047084B4FF0A0411B5C3E
:105CF000D1F80405012202FA03F323EA000203406B
:105D0000C1F80825C1F80C35704700BFF8BA020089
:105D100030B44FF0A04303224FF400354FF48024F9
:105D20004FF400204FF48011C3F84427C3F84827EC
:105D3000C3F84C27C3F85027C3F80855C3F80845E3
:105D4000C3F80805C3F8081530BC7047064A4FF081
:105D5000A043105CD3F8103523FA00F000F00100E6
:105D600080F00100704700BFF4BA02000D2809D08E
:105D70000E2809D00F2809D010280CBF03204FF09F
:105D8000FF307047002070470120704702207047A5
:105D9000014B185C704700BFF4BA020058B910B547
:105DA000054CA36833B10CCB0020A2609847A368D0
:105DB000002BF8D110BD7047DC33002010B501284E
:105DC00082B029D022D303281ED10721002000F061
:105DD00091F802A80023264C00F8013DFEF7CCFF05
:105DE000E368013BE360E36853B9224B01221A6088
:105DF0004FF08042D2F8183413F48033FAD1A370F4
:105E00009DF80700FEF7E0FF02B010BD1A4B01221B
:105E1000C3F8802002B010BD02A80023144C00F883
:105E2000013DFEF7A9FF237893B9134A6360A3608D
:105E30002361E360106810F0010014D004F07CF8D6
:105E400020B94FF080430122C3F8182501232370A5
:105E5000E3689DF8070001330122E360A270FEF7BA
:105E6000B3FF02B010BD072100F044F8E6E700BF21
:105E7000DC3300200C00004000E100E010B51A4BBC
:105E80001A6882B0A2B100221A601B6800934FF01A
:105E900080430122154C0099C3F80823A36862705F
:105EA00033B10CCB0020A2609847A368002BF8D137
:105EB0000F4B1A68AAB100221A601B6801934FF0B9
:105EC00080430222094C0199C3F808232369012267
:105ED000A27033B10CCB0120226198472369002BBB
:105EE000F8D102B010BD00BF00010040DC3300203B
:105EF00004010040002810B418DB00F1604303F5F2
:105F000061434901C9B283F80013C3B2400980005C
:105F100000F1604000F5614003F01F02012393404F
:105F2000C0F8803103605DF8044B7047C3B2044A87
:105F300003F00F0449012244C9B21176E6E700BF1D
:105F4000FCEC00E030B51D4C94F8545083B015B112
:105F5000082003B030BD4FF0FF33FF220721062099
:105F600023636363A363E36323646364A364E364FD
:105F700023606360A360E36023616361A361E36105
:105F8000236284F850306362A36284F85230E36283
:105F900084F8533084F85120FFF7ACFF084B094ACE
:105FA0001D601B68019301984FF0004301212846B2
:105FB00084F85410C2F8043303B030BDF03300202D
:105FC0007C61004000600040034B93F854000030B7
:105FD00018BF0120704700BFF0330020F0B5624CBD
:105FE000251895F93030002B01DB0820F0BD91F821
:105FF00003E09446BEF1000F56D02368013300F051
:10600000A380002508266B1C574F54F8232001322B
:1060100051D0AB1C9E4245D957F8232001324AD0BB
:10602000EB1C9E423ED957F82320013243D02B1D52
:106030009E4237D957F8232001323CD06B1D9E4237
:1060400030D957F82370013735D0AB1D9E4229D97E
:1060500054F82320444F01322DD0EB1D9E4221D90C
:1060600057F82320013226D005F108039E4219D9A2
:1060700057F8232001321ED005F109039E4211D9A1
:1060800057F82320013216D005F10A039E4209D9A0
:1060900057F8237001370ED00B35AE4202D9E36AB0
:1060A000013307D00420F0BD236A013353D0082503
:1060B0000C26A8E70B2326185DB244F823C086F807
:1060C0003050BEF1000F02D1234483F848008B7892
:1060D000A3B94A784FF0A04600F5E073920046F865
:1060E0002320CB78A3B9083D2C44097894F850209C
:1060F00042EA811284F850201846F0BD830003F173
:10610000A043D3F8002722F00202C3F80027E8E7F3
:10611000AB0003F1804303F5C0430A78D3F81015B0
:1061200021F4473121F44071C3F810151204000224
:1061300002F44031D3F8104500F4F8520A432243E8
:10614000C3F810250020F0BD002385F83030C4F8D6
:1061500000C01D46BBE7082685F830603346C4F80A
:1061600020C03546B0E700BFF0330020F0B42E4D1C
:106170002E1882B096F93030072B1CDD2B4493F893
:1061800048309B09032B41D0012B14BF4FF44033FF
:106190004FF40033800000F1A040D0F8002722F433
:1061A0004032C0F80027D0F800271343C0F800376A
:1061B00002B0F0BC7047DAB2072AF9D8980000F1B3
:1061C000804000F5C04003F140029200D0F8104535
:1061D00092B202F18042002744F0010402F5C0426D
:1061E000C0F810450197019817600029E0D096F992
:1061F000302055F82220002ADAD001220B4902FA79
:1062000003F3C1F8043302B0F0BC70474FF0A04371
:10621000D3F81035C34013F0010F0CBF4FF4003317
:106220004FF44033B6E700BFF03300200060004079
:106230004FF0A043D3F8103523FA00F000F001002E
:10624000704700BF2DE9F04387B00026C94B019687
:106250001A68012A00F00482C74B1A68012A00F06C
:10626000F181C64B1A68012A00F0DE81C44B1A681E
:10627000012A00F0CB81C34B1A68012A00F0B881D3
:10628000C14B1A68012A00F0A581C04B1A68012A87
:1062900000F09281BE4B1A68012A00F07F81BD4B4D
:1062A0001A68012A00F0598116F0FF0F1AD0BA4F70
:1062B00001250024A30003F180432E4203F5C043CF
:1062C0004FEA45050BD0D3F8100557F82420D3F832
:1062D0001015C0F30420C1F3014102B1904701340D
:1062E000082CE7D1002E02DB07B0BDE8F083AA4CF2
:1062F00000224FF0FF3327460292039301260DF14F
:10630000080894F950104D1C2DD0C9B221F0C000DE
:1063100006AB4FEAD00E03EB0E0201F0070312F8B2
:106320000CCC06FA03F31CEA030F1CD03D188909B4
:1063300095F9305057F82590B9F1000F00F0E8803A
:10634000032900F0E8804FEA800E0EF1A04E12F80B
:10635000145CDEF800271D40C2F3014240F0B58016
:10636000032A00F0A281002594F95110481C2FD077
:10637000C9B221F0C00006AB4FEAD00E03EB0E020B
:1063800001F0070312F80CCC06FA03F31CEA030F22
:106390001ED007EB000C89099CF930C057F82C90EF
:1063A000B9F1000F00F0C680032900F0C6804FEA63
:1063B000800E0EF1A04E12F814CCDEF800271CEA75
:1063C000030FC2F3014240F08D80032A00F0928156
:1063D00094F952104A1C2ED0C9B221F0C00006AB6D
:1063E0004FEAD00E03EB0E0201F0070312F80CCCBB
:1063F00006FA03F31CEA030F1DD007EB000C890912
:106400009CF930C057F82C90B9F1000F00F089804A
:10641000032900F088804FEA800E0EF1A04E12F89A
:1064200014CCDEF800271CEA030FC2F3014265D149
:10643000032A00F04C8194F953104B1C2CD0C9B2A4
:1064400021F0C00006AB4FEAD00E03EB0E0201F0C4
:10645000070312F80CCC06FA03F31CEA030F1BD057
:1064600007EB000C89099CF930C057F82C90B9F162
:10647000000F69D0032969D04FEA800E0EF1A04EBB
:1064800012F814CCDEF800271CEA030FC2F3014215
:1064900011D1032A00F0F080002D3FF425AF4FF01A
:1064A000A043019AD3F8103593423FF41DAF029AEE
:1064B0000193039225E7022AEED1032900F02D81F2
:1064C000B9F1000FE8D0C847E6E7022A7FF44BAFE6
:1064D000032900F02B810025B9F1000F3FF444AFF0
:1064E000C84741E7022A7FF473AF032900F01881FF
:1064F000B9F1000F3FF46CAFC84769E7022A9AD19F
:10650000032900F01081B9F1000F94D0C84792E739
:1065100003297FF428AF18F80E501D4308F80E50D9
:1065200011E7032987D118F80EC04CEA030C08F8CC
:106530000EC070E703297FF44BAF18F80EC04CEA89
:10654000030C08F80EC032E70329A5D118F80EC0D5
:106550004CEA030C08F80EC08EE700221A601B6894
:1065600005934FF0A043059AD3F81035019346F0F8
:10657000004699E600610040046100400861004067
:106580000C6100401061004014610040186100403F
:106590001C6100407C610040F0330020654AD2F865
:1065A000042317067FF57BAE00221A601B68049354
:1065B000049B46F0800672E65E4AD2F80423520637
:1065C0007FF568AE00221A601B680493049B46F0B6
:1065D00040065FE6574AD2F8042391067FF555AE90
:1065E00000221A601B680493049B46F020064CE6C8
:1065F000504AD2F80423D0067FF542AE00221A603A
:106600001B680493049B46F0100639E6494AD2F809
:10661000042314077FF52FAE00221A601B68049331
:10662000049B46F0080626E6424AD2F804235507A2
:106630007FF51CAE00221A601B680493049B46F091
:10664000040613E63B4AD2F8042397077FF509AE08
:1066500000221A601B680493049B46F0020600E6C1
:106660003449D1F8041311F001011CD01E601B68DD
:106670000493049B1646EFE503297FF421AF4FF402
:106680000033DEF8002722F44032CEF80027DEF88F
:10669000002701351343EDB2CEF80037B9F1000FF2
:1066A0007FF411AFFBE60E46D6E503297FF414AF65
:1066B0004FF40033DEF8002722F44032CEF80027F2
:1066C000DEF800271343CEF80037012504E703293D
:1066D0007FF419AF4FF40033DEF8002722F4403284
:1066E000CEF80027DEF8002701351343EDB2CEF8CF
:1066F000003708E703297FF4FBAE4FF40033DEF8E0
:10670000002722F44032CEF80027DEF800270135BA
:106710001343EDB2CEF80037EAE64FF44033B0E76A
:106720004FF44033EBE74FF44033D5E74FF44033B9
:10673000C0E700BF00600040F0B50479724E64010C
:10674000331987B0DD7E15B1082007B0F0BD4D7F4D
:106750001D770D686B1C0BD04FF0A0470123AB4099
:10676000C7F808350B6803F5E073032547F8235095
:106770004B685F1C06D003F5E0734FF0A04500277F
:1067800045F82370037906EB43131B7F002B4DD094
:1067900003688D69C3F824554F7D0B7D05683B4325
:1067A000C5F86C3503680F684D68C3F80C75C3F8FD
:1067B00014550B7D012B00F09B80331905465A6060
:1067C0000B6951483351EAB12B79097F2A6800EBF4
:1067D0004310037F002B65D1C2F81C31D2F81C7125
:1067E0002A680097009FC2F84431D2F844212B68F0
:1067F00046480192019AC3F80403286840F3073021
:10680000FFF778FB2B792A6806EB43131B7F002BDD
:1068100044D00823C2F80035344400200123E37635
:10682000E0752076A075A07607B0F0BD05688F6989
:10683000C5F8247591F815E00D7D07684EEA050549
:10684000C7F86C550568D1F800E04F68C5F81475B5
:10685000C5F80CE50D7D012DAFD18D686F1C05D0FD
:1068600005F5E0754FF0A04747F82530CB685D1C73
:106870000DD001254FF0A04705FA03F3C7F80835FE
:10688000CB6803F5E073032547F82350CB68056810
:106890008F68C5F80835C5F810758EE70423C2F86F
:1068A0000035B9E70023C2F81031D2F810712A6818
:1068B0000297029FC2F82031D2F820712A6803970C
:1068C000039FC2F82431D2F824712A680497049FE8
:1068D000C2F84431D2F844212B6805920C48059A3D
:1068E000C3F80403286840F30730FFF703FB89E788
:1068F0008B685D1CBAD003F5E0734FF0A04500270C
:1069000045F82370B2E700BF483400208000020041
:1069100010030200F0B50379534C5B01E51887B012
:106920002D7F3DB101F06045B5F1005F02D0102030
:1069300007B0F0BD23444C4F9E7D16B1112007B027
:10694000F0BD9A7599609E8205796D017A19137F61
:1069500013BB0168C1F81C31D1F81C6101680496B1
:106960000126049F8E600168D2F808E0C1F81C314E
:10697000D1F81C310593059B968A938A5768B6B265
:1069800001331EF806609BB29382C1F81C65002F8C
:106990002FD0002007B0F0BD03689168C3F82061D4
:1069A000D3F8207103680197019FC3F85861D3F8A9
:1069B000586103680296967D029FC3F84415C3F898
:1069C00048650368012199605368002BE1D1036891
:1069D00001E0002945D1D3F82021D3F85811002A2D
:1069E000F7D0002914BF0F2000202C440023A375EA
:1069F0009EE7967D938A9BB29E4202F1140122D9B2
:106A0000016804E0938A9BB2B3F5807F03D0D1F88C
:106A10001C31002BF6D0938A9BB2B3F5807FE9D06E
:106A2000C1F81C71D1F81C310393039BB2F814C058
:106A3000938A1FFA8CFC01331EF80CC09BB2938220
:106A4000C1F81CC5D6E70B889BB2B3F5807F08D090
:106A50000268D2F81C31002BFBD00123D360002048
:106A6000C3E70F20C1E700BF483400200279044B80
:106A700003EB4213987D003018BF0120704700BF20
:106A800048340020F0B403798C4E5B01F41888B0D0
:106A9000257F4DB101F06045B5F1005F59D010225E
:106AA000104608B0F0BC70476568002D42D13344F1
:106AB000824FDC7D002C2BD1DA75D9605C761C7698
:106AC00005796D0173191F7F002F50D19B7E8BB903
:106AD00084B90368C3F82441D3F8242103680392DE
:106AE000039AC3F80841D3F80821036804920122ED
:106AF00004991A6071194B68002B6FD003684FF42A
:106B00000172C3F804230022104608B0F0BC70479D
:106B10001C7ED4B1002D00F0AA80037907EB431747
:106B20003B7F002B53D003684FF40472C3F8042357
:106B30001122B5E704684FF401773344C4F80873B1
:106B4000DC7D5E4F002CB7D0E2E719611A76012494
:106B5000B6E76568002DAAD004684FF40477334483
:106B6000C4F80873DC7D554F002CA5D0D0E703682E
:106B70000025C3F81051D3F8107103680197019FE5
:106B8000C3F84451D3F8445103680295029DC3F8F9
:106B90003415C3F8382594B9036801221A600279C4
:106BA0005201B3185B68002B63D003684FF4047282
:106BB000C3F804230022104608B0F0BC70470268F6
:106BC000D2F8003243F02003C2F80032E7E703684E
:106BD0004FF40172C3F80423112261E70268C2F87E
:106BE0004431D2F844310593059B0368D3F82471EE
:106BF000D3F80841D3F8442144B9002A30D1002FFA
:106C0000F4D035440023EB75032249E7002FF8D177
:106C100042BBCC7DC3F80821D4B1D3F80841069417
:106C2000069CCF684C7ED3F818353B554B7ECC7D07
:106C30000133DBB24B764B7E9C42D6D835440021E3
:106C4000AB7EE975002B34D003680121196027E77A
:106C5000D3F808410794079CD3F818354B7EEDE72D
:106C6000002FCED135440023EB750F2218E71122F7
:106C700016E7036801E0A0B9BCB9D3F81011D3F846
:106C80004401D3F824410029F5D01644002C4FF0DC
:106C9000000314BF03221A469842F37518BF0F224F
:106CA000FEE616440F22F175FAE616440322F0754B
:106CB000F6E6036801215960F2E600BF483400207F
:106CC000114A037902EB4313197FD9B99B7ECBB9E3
:106CD00010B4016883B0C1F82431D1F824410168AF
:106CE0000094009CC1F80831D1F808310168019383
:106CF0000123019C0B60017902EB4112937603B0F2
:106D00005DF8044B704700BF4834002070B59B4CC1
:106D1000237F8EB0002B75D1994AD2F804138905D0
:106D200048D4974BD3F80423520704D5D3F808214D
:106D3000002A40F0CA80924BD3F81C21C2B1A28A2B
:106D4000A07D8E4992B282424FF00002C3F81C210E
:106D500080F0A980D3F81C210692069A888A8A8A34
:106D60008D6880B20132285C92B28A82C3F81C0519
:106D7000834BD3F84421DAB10022C3F84421D3F87D
:106D80004411A27E04910499002A40F08980E27D9A
:106D90007A4B6AB10022587ED968DA7501228DF8E3
:106DA00030000B918DF828200AA893E80600904740
:106DB0000EB070BDD2F824110029B2D0C2F824312F
:106DC000D2F82411A37E07914FF401710798C2F8FD
:106DD00008130BB901235360694A02238DF8283048
:106DE000D2F88034C2F88034E07DE2680D9300234D
:106DF0008DF83000E375237621680B9263680AA84A
:106E0000984798E75E4BD3F82421002A40F09380FE
:106E1000D3F8101161B1C3F81021D3F81011039108
:106E20000399D3F83C15E07DC9B2884200F0AA80EE
:106E3000534BD3F84421B2B10022C3F84421D3F814
:106E40004411E07D019101994C4960B1D3F83C3582
:106E5000C8688DF830300123CA750B908DF8283042
:106E60000AA80AC99847464BD3F82021002A9FD088
:106E70000022C3F82021D3F82011A07D00910099B1
:106E80003E49002894D0D3F84C058B688DF830002B
:106E90008A750B938DF828200AC90AA8984787E7B6
:106EA00001221A6073E7D3F81C310593059B002873
:106EB0003FF45EAF8B688DF830008A750B938DF8C8
:106EC00028200AC90AA8984752E7E17D2B4A0029E1
:106ED00070D00021C3F80811D3F80811089108995F
:106EE000D068517ED3F818354354537ED17D013399
:106EF000DBB25376627E214B8A427FF41CAF1A7E4E
:106F0000002A6DD19B7E13B91D4B01225A601C4A89
:106F1000E06863684FF40171C2F80813627E8DF86F
:106F20003020002501220B902168E5758DF828207E
:106F30000AA89847FFE60022C3F82421D3F82411B9
:106F4000029102218DF828100299D3F88014C3F819
:106F500080140D91D3F83C15E368E27522768DF824
:106F600030100B93216863680AA89847044BD3F844
:106F70004421002A3FF477AF5EE700BF4834002089
:106F800000200040217EF1B1D3F80062E17526F0C7
:106F90002001E568C3F8001226698DF8300001234E
:106FA0008DF82830227621680B95E66063680AA880
:106FB00098473DE7C3F80811D3F808210992099AC8
:106FC000D3F8183596E7E268E17501238DF83000B3
:106FD0008DF828300B9294E80A000AA8984727E712
:106FE000DE685D7E1869DA7501210022D8601A76A4
:106FF0005A768DF828100B968DF8305093E80600DD
:107000000AA8904797E600BF0220FEF76DBE00BFBA
:107010002DE9F0470D460646FEF7A8FE03281ED8C8
:10702000012D04461FD00ED3022D1AD11C4B00EBAC
:1070300040041C44657895B11A4B1B687BB1284607
:10704000BDE8F04718471848FDF740FD1449174AB6
:1070500004EB44030B44155D9B789D42EBD0BDE8E7
:10706000F087BDE8F087DFF8388047003B1808EB71
:10707000030218F8035053782BB9274447440B4BAD
:10708000BA781A55D7E7DFF8289007484A464FF4F0
:107090000041FDF7C5FC0028EFD189F80060ECE75E
:1070A000E0340020983400209C34002090340020EC
:1070B0008834002010B50078FEF758FE03280BD85E
:1070C000064B00EB40001844407828B1044B1B6885
:1070D00013B1BDE81040184710BD00BFE0340020D8
:1070E00098340020B34B1B68DB0700D4704770B5A1
:1070F000B14EB24D33782C78FBB9172C1CD8DFE891
:1071000014F0F1001401140163007600830096006E
:107110005D0039002C0039002C00A300A800A80055
:10712000A800A800A800CE00DE000101460018005B
:107130001800FEF7C3FD2C7070BDA14B1B7800201A
:107140003070002B00F00581FEF796FD0120FEF760
:1071500093FD0320FEF790FDCFE70123184633701F
:10716000FEF7C2FD00224FF480419648BDE8704012
:10717000FDF756BC012318463370FEF7B5FD00221B
:1071800040F6CD418F48BDE87040FDF749BC8C4BBF
:107190001B78002B00F0FE800020FEF76DFD012023
:1071A000FEF76AFD0320FEF767FD0020FEF758FD9D
:1071B0000120FEF755FD15232B7070BD0020FEF752
:1071C0004FFD07232B7070BD0020FEF739FD00280E
:1071D00000F0D3800020FEF74FFD46F266610323E6
:1071E0002B7000227748BDE87040FDF719BC0020E5
:1071F000FEF726FD002800F0C5800020FEF73CFDCC
:107200004FF400310423EBE70020FEF719FD0028BE
:1072100000F0BD800020FEF72FFD05232B7000221B
:1072200041F69A116748BDE87040FDF7F9BB0020B0
:10723000FEF75AFD06232B70002240F6CD4161482F
:10724000BDE87040FDF7ECBBFEF738FD0C232B705A
:1072500070BD5D48FDF73AFCD4F1110405467BD0C2
:10726000002879D1012C13D0C82303FB04F44FF478
:10727000FA704FF400430021C3FB04014FF47A720B
:10728000002303F0F1FF2A4601464F48FDF7C8FBF3
:107290000220FEF7E5FC4A4B01221A7070BD484BF4
:1072A0001B78002B79D00020FEF7E6FC0120FEF7CA
:1072B000E3FC0320FEF7E0FC12232B7070BD404B73
:1072C0001B78002B6FD00020FEF7D6FC0120FEF7C4
:1072D000D3FC0320FEF7D0FC0020FEF7C1FC1323F3
:1072E0002B7070BD364B1B78002B59D00020FEF759
:1072F000C3FC0120FEF7C0FC0320FEF7BDFC002309
:107300002B7070BD2E4B1B78002B4FD00020FEF74A
:10731000B3FC0120FEF7B0FC0320FEF7ADFC01201A
:10732000FEF79EFC14232B7070BD0020FEF788FC36
:10733000C8B10020FEF7A0FC022C4EF2666118BF17
:107340004FF400312C7000221E48BDE87040FDF75C
:1073500067BBFEF79DFCD0E60220FEF78DFC184BC4
:1073600000221A7070BDFEF77BFC43F2333341F606
:107370009A11022C18BF1946E4E7FEF771FC41F69A
:107380009A112CE7FEF76CFC43F233313AE7FEF733
:1073900067FC42E7FEF77CFC07E7FEF779FC8BE72A
:1073A000FEF776FCABE7FEF773FC95E7FEF770FCA3
:1073B000B5E700BF8C34002094340020BC3400209A
:1073C0008934002068340020C0340020FEF7BEBCA1
:1073D00038B5C44B1B6813F0010401D1204638BDF9
:1073E000C14C23780546E3B9172D00F27881DFE818
:1073F00015F00B013101310169007D009100A500FC
:107400005B003500280035002800B300BA00BA0040
:10741000BA00BA00BA00E300F6001C0142006300A3
:107420006300B24B1B7800202070002B00F02781F6
:10743000FEF722FC0120FEF71FFC0320FEF71CFCD8
:10744000D2E7012318462370FEF74EFC00224FF4CA
:107450008041A748BDE83840FDF7E2BA012318464D
:107460002370FEF741FC002240F6CD41A048BDE864
:107470003840FDF7D5BA9D4B1B78002B00F02081DA
:107480000020FEF7F9FB0120FEF7F6FB0320FEF7D4
:10749000F3FB0020FEF7E4FB0120FEF7E1FB954B38
:1074A00015221A70002499E70020FEF7D9FB914BB2
:1074B00007221A70002491E7FEF700FC8D4B002490
:1074C0001D708BE70020FEF7BBFB002800F0E18079
:1074D0000020FEF7D1FB46F26661864B8448032408
:1074E0001C700022BDE83840FDF79ABA0020FEF774
:1074F000A7FB002800F0DC800020FEF7BDFB4FF466
:1075000000317C4B7A4804241C700022BDE83840CE
:10751000FDF786BA0020FEF793FB002800F0CD802F
:107520000020FEF7A9FB734B714805241C70002254
:1075300041F69A11BDE83840FDF772BA0020FEF717
:10754000D3FB6C4B6A4806241C70002240F6CD41E8
:10755000BDE83840FDF764BAFEF7B0FB654B0C227E
:107560001A7000243AE76448FDF7B0FA0446D5F1F2
:10757000110000F08780002C40F08480012814D096
:10758000C82505FB00F54FF400434FF4FA700021C5
:10759000C3FB05014FF47A72002303F065FE224617
:1075A00001465548FDF73CFA04460220FEF758FB19
:1075B0004E4B01221A7011E74C4B1B78002B00F048
:1075C00082800020FEF758FB0120FEF755FB0320C8
:1075D000FEF752FB474B12221A700024FEE6434B83
:1075E0001B78002B75D00020FEF746FB0120FEF72C
:1075F00043FB0320FEF740FB0020FEF731FB3D4B31
:1076000013221A700024E9E6384B1B78002B5DD05A
:107610000020FEF731FB0120FEF72EFB0320FEF7D2
:107620002BFB344B00241C70D8E6304B1B78002B0E
:1076300052D00020FEF720FB0120FEF71DFB0320A7
:10764000FEF71AFB0120FEF70BFB2A4B14221A70DF
:107650000024C3E60020FEF7F3FAF8B10020FEF79D
:107660000BFB022D4EF2666118BF4FF40031214B27
:107670001F481D700022BDE83840FDF7D1B9FEF764
:1076800007FBB1E60220FEF7F7FA184B00221A704A
:10769000A4E6FEF7E5FA41F69A111EE7FEF7E0FAD6
:1076A00043F2333341F69A11022D18BF1946DEE733
:1076B000FEF7D6FA43F2333123E7FEF7D1FA32E789
:1076C000FEF7E6FAE5E6FEF7E3FA83E7FEF7E0FA0F
:1076D000A7E7FEF7DDFA8FE7FEF7DAFAB2E7002454
:1076E0007CE600BF8C3400209434002089340020D4
:1076F00068340020BC340020C0340020F0B5204A9B
:10770000204B1060044610F0020083B0196013D0C3
:107710001D4B1E480E210F2710261125197040F20F
:1077200066620421DF709E715D72FCF73FFCA0B1C0
:10773000E3071DD403B0F0BDE20719D4144A15487D
:107740000021FDF75BF90028F4D1134A1348012109
:1077500003B0BDE8F040FDF751B9FCF77FFC00280D
:10776000E6D101460E4A0F48FDF748F9E10703D577
:107770000190FEF7CDFA01980028DFD003B0F0BDEC
:107780008C34002098340020E034002018BB020024
:10779000E570020038BB0200097002003CBB020029
:1077A000B570020014BB0200032801D907207047FE
:1077B000012A12D0012917D008D30229F6D10D4B86
:1077C00000EB4000034400205A707047094B00EB67
:1077D0004000034400209A707047012901D0002224
:1077E000E8E700F10E02D2B200EB400301490020AD
:1077F000CA547047E034002008B5FEF7C9FA80008B
:1078000000F1A0430020D3F8002722F44032C3F84F
:107810000027D3F8002742F44032C3F8002708BD00
:1078200010B50388102B08D0112B05D1264B1868F2
:107830000138186038B110BD10BD234C216881B1EA
:107840000131216010BD01220221FFF7ADFF48B3D5
:10785000072827D01D4B1B68002BECD0BDE810403B
:10786000184701220846FFF79FFF48B1072807D0B5
:10787000164B1B6803B1984721680131216010BD88
:10788000072202210120FFF78FFF08B10728EFD15F
:10789000042202210020FFF787FF0028ECD00728F0
:1078A000E6D1E9E7072202210120FFF77DFF08B1B9
:1078B0000728CFD1002108460A22FFF775FF0028CC
:1078C000B9D00728C6D110BDF0340020EC34002018
:1078D00008B50020FFF790FF10B1062800D008BDC2
:1078E0000120FFF789FF0028F9D0062808BF0020F3
:1078F00008BD00BF194B10B5186031B101200C460E
:10790000FFF764FD30B102232370154B186848B1AE
:10791000002010BDFFF75AFDE8B9114B2070186820
:107920000028F5D101220221FFF73EFF08B1072808
:10793000EFD1072202210120FFF736FF08B1072807
:10794000E7D1002108460A22FFF72EFF0028DFD0EA
:107950000728DED1DCE70B232370D6E7EC340020C8
:10796000F034002076DF70477ADF70477CDF7047A5
:107970007FDF70478FDF704790DF7047A8DF704769
:10798000A9DF704766DF704732DF70473EDF704720
:10799000FCF77ABB10B50388013B84B00446552B35
:1079A0003DD8DFE803F06A3C3C3C3C3C3C3C3C3C82
:1079B0003C3C3C3C3C2B713C7E3C3C3C3C3C3C3CA1
:1079C0003C3C3C3C3C3C883C943C3C3C3C3C3C3C53
:1079D0003C3C3C3C3C3C3C3C3C3C3C3C3C3C3C3CE7
:1079E0003E3C3C3C3C3C3C3C3C3C3C3C3C3C3C3CD5
:1079F0003C3C3C3C3C3C48603C3C3C3E3A4B3B497C
:107A00001888000440F00300FBF78EFE0720FFF704
:107A1000DFFC08B1FCF738FB354BA2881A8004B0B4
:107A200010BD80881321FFF79DFF0028F7D0FCF7D9
:107A30002BFB04B010BD8379002BF0D0827B043A7D
:107A4000022AECD8022B0CBF022201224FF4C17390
:107A500080888DF800206946ADF80430FFF78EFF6E
:107A60000028DCD0E3E7224A0023108819461A4692
:107A7000FFF786FF0028D2D0D9E780880021FFF7E2
:107A800081FF0028CBD0D2E7174B1A491888000491
:107A900040F00300FBF748FE154B4FF6FF721A80CB
:107AA000BDE7134A0023108885211A46FFF760FFBF
:107AB0000028B4D0BBE7002380888DF800306946E9
:107AC0008DF80130FFF756FF0028A8D0AFE7082255
:107AD0000021684602F01BFC6946A0880022FFF7DF
:107AE0004BFF00289BD0A2E7642C002058BB02006B
:107AF000802A002064BB020008B5037803B108BDEA
:107B0000054B3B211888FFF72DFF0028F7D0BDE873
:107B10000840FCF7B9BA00BF802A00200D4B4A8804
:107B20001B889A4200D070470A8840F677239A4211
:107B3000F9D130B4084B8C881888084D0849033CAB
:107B4000A4B20004234622462C8040F0030030BC3F
:107B5000FBF770BF802A0020642C0020822A0020BE
:107B600074BB0200072808B51CD00A280ED00428D0
:107B700000D008BD154B13211888FFF7F3FE30F035
:107B80000803F6D0BDE80840FCF77EBA0020FFF7F6
:107B90001FFCB8B9FFF79CFE88B9FFF7F5FE002877
:107BA000F0D108BD094B1A884FF6FF739A42E0D115
:107BB000074801F00FFA30F00803DAD0E2E7FCF7EB
:107BC00063FAEAE7FCF760FAE4E700BF802A0020E6
:107BD000EC35002030B50378012B83B002D006D3FA
:107BE000022B02D14068FCF74FFA03B030BD144CB1
:107BF000144D20782844FDF77DF823780133DBB25B
:107C00001D44237015F8012C0A2A03D00E4A12884D
:107C10009A42EAD80DF106020A490C48ADF806303E
:107C200002F07EF8082802D0112804D028B90023D9
:107C3000237003B030BD2378ECE7FCF725FAF6E7B4
:107C4000F4340020F8340020822A0020D8370020A5
:107C5000F8B5057895B9838906464BB3164FB368D6
:107C6000585DFDF767F80446A0B9B3890135AB420A
:107C7000F5D8013BB268D35C0D2B00D0F8BD0A20CB
:107C8000FDF758F81128F9D10A20FDF753F811280B
:107C9000F5D0F3E7112802460849E0D038880004FF
:107CA00040F00100FBF7FEFD2046FCF7EDF9DCE7B4
:107CB0004FF0FF33DEE700BF642C002090BB0200D2
:107CC00008B530B1032803D10220FFF781FB50B97A
:107CD00008BDFFF77DFB50B9FFF7FAFD50B9FFF77C
:107CE00053FE0028F4D0BDE80840FCF7CDB9FCF7FE
:107CF000CBF9F1E7FCF7C8F9F1E700BF08B509498E
:107D0000094801F0ABFB48B94021074801F0BCFB32
:107D100000B908BDBDE80840FCF7B6B9FCF7B4F9F6
:107D2000F2E700BF1D7B0200C436002070B5ACB086
:107D3000FCF7A2FD08B1FCF7A7F9914D914B009318
:107D40000FCD04AC0FC495E803008F4A8F4D029508
:107D500084E8030007234FF48074694604A8019463
:107D60000394FCF755FF08B1FCF78EF90020FBF7F0
:107D700057FB08B1FCF788F9FBF744FB8449032063
:107D8000FFF7BCFC08B1FCF77FF904A90020FFF75E
:107D9000B1FD08B1FCF778F901F0F0FF08B1FCF78C
:107DA00073F9002304A90120049302F00DF908B12E
:107DB000FCF76AF904A802F0DBF908B1FCF764F9F2
:107DC0009DF800307348012262F3030362F3071346
:107DD0008DF8003002F0C4FA6E4982B26846FFF7AF
:107DE000C5FD08B1FCF750F908220021102404A8B1
:107DF00002F08DFA3C2100224FF4C8730DEB040011
:107E0000ADF81040ADF81210ADF81420ADF81630F2
:107E1000FFF7AAFD08B1FCF737F9FFF76FFF002164
:107E2000042204A802F073FA5B4B5C48049304A993
:107E300001F07EFE08B1FCF727F9A022002104A87A
:107E400002F065FA0225002405210123544E554A0B
:107E50008DF810508DF812404025B4248DF8131081
:107E60005148ADF85C3004A98DF88C3018962695F1
:107E700027942A9200F078FF08B1FCF705F9012158
:107E8000494800F06DFF1C22002104A802F03FFACF
:107E90004FF4203600234FF4702503244349444A0D
:107EA000049304A8ADF81E308DF820300596069591
:107EB0008DF81C4009910A9201F0FAF908B1FCF71B
:107EC000E3F83C4802F02CFA3B4B3C49188800048C
:107ED00040F00300FBF728FC0321334800F0F4FFD7
:107EE00008B1FCF7D1F8364E364D374C3268234690
:107EF00000BF00BF00BF00BF00BF00BF00BF00BF8A
:107F0000AA422FD000BF00BF00BF00BF00BF00BF0C
:107F100000BF00BF00BF00BF00BF00BF00BF00BF69
:107F200000BF00BF00BF00BF00BF00BF00BF00BF59
:107F300000BF00BF00BF00BF00BF00BF00BF00BF49
:107F400000BF00BF00BF00BF00BF00BF00BF00BF39
:107F500000BF00BF00BF00BF00BF00BF00BF00BF29
:107F600000BF00BF013BC3D1124802F0D9F9FBF7B3
:107F7000C5FAFFF70BFD0028B8D0FCF785F8B5E788
:107F800040BB0200D8360020D57B0200F437002029
:107F9000657B0200BCBB0200517C0200D837002088
:107FA0007C2A0020C17C0200EC350020F97A020016
:107FB00091790200CCBB0200642C0020DCBB0200E3
:107FC000842A00200024F400A08601002DE9F84F47
:107FD0004400DFF87CA126180AEBC6068146F36A46
:107FE000012B8B46174642D032D3022B3AD100F1F7
:107FF000010909EB4909756A4FEAC9094FF0000800
:108000001CE0326A641BBC420AEB09012346A2EB66
:10801000050428BF3B469C42486828BF1C462844AC
:108020005946224602F068F9336A25449D4208BF4A
:1080300000253F1BA044A344756215D0B36AAB4230
:1080400003F1FF34DDD8326A1344013B5C1BDAE7ED
:10805000B36A756AAB429CBF326A9B18013B5B1BDB
:108060009F4237D94FF000084046BDE8F88FB36A09
:10807000756AAB4226D903F1FF38366AC5EB0808AA
:10808000B84528BFB846761BB04542D309F1010771
:1080900007EB47070AEBC707A14478683246594601
:1080A00028440AEBC90AC6EB080502F025F97868EE
:1080B0000BEB06012A4602F01FF9CAF8245040468D
:1080C000BDE8F88F366A03EB060808F1FF38C5EB08
:1080D0000808D5E704440AEBC40A00F10109DAF8FC
:1080E00020601B4B761BB74209EB490924D303EBF5
:1080F000C904324660682844BD1B02F0FDF8606880
:108100000BEB06012A4602F0F7F8B846CAF82450ED
:10811000AAE709F1010303EB43030AEBC303A144FC
:1081200058680AEBC90A284459464246454402F0B9
:10813000E3F8CAF8245097E703EBC9033A465868B6
:1081400028443D4402F0D8F8B846CAF824508BE7DA
:10815000303C0020F8B5114C114B124AE3614FF44A
:1081600000750023104FA36210266362E362A365CB
:108170006365E3650D492562A2610225A264E01DE5
:10818000E76426652561656102F0E2F8204608494A
:1081900002F0DEF82023A371F8BD00BF303C0020C0
:1081A00004390020E8BB0200F4380020F4BB0200D0
:1081B000F8BB02006DDF704772DF704779DF7047F0
:1081C0007DDF704764DF70472DE9F04F83B004888E
:1081D0000C9FBDF83490B7F800A0002C4CD0984606
:1081E000002316468B4605461C4603E02A880134C8
:1081F000A24224DD6A6852F82400019000220DF1A9
:10820000030101A8FFF7DEFF10BB9DF80320B24277
:10821000ECD103B33A8893194B4518DC42440DF175
:10822000030101A80123FFF7CDFF88B93A889DF823
:1082300003100A443A802A880134A242DADCDBB116
:108240003B88013BCAEB03039BB2FF2B12D90C20E6
:1082500003B0BDE8F08F3B885A1C334402334B45D2
:1082600092B2F4DC3A8008F802B03A88013292B255
:108270003A80D3E708F80A30002003B0BDE8F08F59
:108280002DE9F04700231788138090F82D3084B033
:10829000144605460E46002B49D1AA78002A70D113
:1082A000EA78002A2ED16A68A2B1D91CB94225D831
:1082B000022192F90020F154238801339BB20A2154
:1082C0002380F154238801339BB22380F254238806
:1082D000013323802B89002B40F02A812B8A002B2D
:1082E00040F03F812B8B002B40F054812A6A002AFA
:1082F00000F0A78021888B1DBB4262D90C2004B0FE
:10830000BDE8F087D91CB942F8D80221F15423887E
:1083100001339BB201212380F15423880B449BB28B
:108320002380F25423880B449BB22380BBE7082FA1
:10833000E4D902A8FFF73EFF0028E0D11388082205
:10834000CA54238801339BB21B222380CA5420883D
:10835000013080B22080062208440DF1090101F0AD
:10836000CBFF23889DF8082006339BB212F0FE0253
:1083700018BF01222380F254238801339BB223804B
:108380008BE70433BB42B9D802A8FFF717FF0028D8
:10839000B5D12388BDF808200321F1542388013387
:1083A0009BB219212380F154238801339BB2F11829
:1083B0002380F254120A4A70238802339BB223802E
:1083C0006EE71388052B40F2AF806FF4486803EB2B
:1083D000080080B24FF27D3E704540F2A580508883
:1083E000052840F2A1806FF4486C84441FFA8CFC8D
:1083F000F44540F299804FF6FF7E734504D07045F6
:1084000002D0834200F29080052373542388013305
:108410009BB212212380F154238801339BB2238025
:108420001188F1543344090A5970238802339BB2EE
:1084300023805288F2543344120A5A70238802333C
:108440002380D5F82480B8F1000F30D0B8F804208C
:108450002188131D0B44BB423FF650AF931CFE2BEB
:108460003FF64CAF03327254238801339BB2FF2294
:108470002380F254238801339BB22380B8F8002074
:10848000F2543344120A5A702088023080B220809D
:10849000B8F804205AB1D8F80810002944D0304464
:1084A00001F02AFFB8F8043022881344238095F89D
:1084B0002C30002B40F08B80287800283FF41FAF31
:1084C0002B88012B30D023889A1CBA423FF616AF76
:1084D000012805D16978023119448F42FFF40EAFAB
:1084E000023FFB1A04A99BB221F8083DB018FFF720
:1084F00067FE00287FF403AF2A78022A00F0B480D8
:10850000012A60D01A460821FE2A3FF6F7AE2388DA
:10851000551CF554238801339BB22380F1542388E2
:1085200001331A442280EAE6072004B0BDE8F08750
:1085300005F1080802228DE89000404611463346B6
:10854000FFF742FE00287FF4DAAE8DE89000404647
:10855000334610220621FFF737FE00287FF4CFAE06
:10856000BCE605F110088DE8900040463346022233
:108570000321FFF729FE00287FF4C1AE8DE89000AB
:108580004046334610220721FFF71EFE00287FF4E5
:10859000B6AEA7E605F118088DE8900040463346D0
:1085A00002221421FFF710FE00287FF4A8AE8DE808
:1085B00090004046334610221521FFF705FE0028A3
:1085C0007FF49DAE92E66A7893429CD29AE7D5F802
:1085D0002880B8F1000FA7D0B8F804200232FE2A94
:1085E0003FF68CAE23884FF000094FF0160A013297
:1085F000F254238801339BB2238006F803A023881A
:1086000001339BB22380B8F80020F2543344120A9D
:108610005A70238802339BB22380B8F80410F018F4
:108620000A4669B1D8F808301946002B3FF47CAFF0
:1086300001F062FEB8F80430228813449BB2238014
:1086400009F1010995F82C205FFA89F94A4509EBEF
:1086500049087FF631AFAA6A02EB8808B8F804200F
:108660000232FE2AC3D949E6BDF808209342FFF43E
:1086700049AF092148E700BF2DE9F04395B01F231A
:108680000D46ADF80E300446002800F08480C27814
:1086900053077CD590F82D300021ADF80C10002B3D
:1086A00040F0DD8183780CAF002B40F01982194631
:1086B000032014AE31445F1C023316FA87F74FF0E3
:1086C000020E16FA83F601F840EC83B2012107F896
:1086D000401CADF80C3006F8402C6668002E00F007
:1086E0008C80D81C1F2874D90C2015B0BDE8F083ED
:1086F000A76A002F4BD0BA880232FE2AF4D8BDF800
:108700000C304FF0000804AE4FF016091AE001F0EB
:10871000F3FDBDF80C20BB8894F82C1013449BB2D9
:10872000ADF80C3008F101085FFA88F8884508EBCD
:10873000480780F0F080A26A02EB8707BA8802320D
:10874000FE2AD1D80DF1500E9E44581C01320DF175
:10875000500C0EF8402C1CFA80F09A1C92B200F8D3
:10876000409CADF80C203888B0543244000A507058
:108770000433B7F804E09BB27246F018ADF80C3041
:10878000BEF1000FCED0BB681946002BBFD1072029
:1087900015B0BDE8F083ADF80C00ADB1EB78002B5F
:1087A000F5D128460CA90DF10E02FFF769FD00284E
:1087B000EED19DF80E300CAA20469DF80C10FFF764
:1087C000FBFC15B0BDE8F0832B46ADF80E502A46F1
:1087D000F2E714AF591C9A1C17FA81F13B4417FABF
:1087E00082F296F90060ADF80C0002270A2003F827
:1087F000407C01F8400C02F8406C2389002B40F0CB
:108800008F80238A002B40F0AB80238B002B40F01D
:10881000C780226A002A42D0BDF80C30991D1F295A
:108820003FF662AF10880528B1D96FF4486C00EBB1
:108830000C06B6B24FF27D37BE42A8D95688052E37
:10884000A5D96FF4486EB6441FFA8EFEBE459ED978
:108850004FF6FF77B84203D0BE4201D0B04296D85F
:1088600014A8C7185E1C10FA86F64FF0050E981C67
:1088700007F840EC80B2122706F8407CADF80C00F7
:108880001788ADF80C1004AE3118375404333F0A82
:108890004F709BB25288F2543344120A5A70676A7E
:1088A000A7B3B888BDF80C30811C9A1C56181F2E2F
:1088B0003FF61AAFFE293FF617AF14AE1E44591CFF
:1088C0000DF1500E1EFA81F1033006F8400C92B201
:1088D000FF2001F8400CADF80C20398804AEB01828
:1088E000B154090A41700433BA8898B2ADF80C004B
:1088F00062B1B96800293FF44AAF304401F0FCFC92
:10890000BDF80C20BB881344ADF80C3094F82C1043
:1089100000297FF4EDAE2378002B61D104AC3CE755
:1089200003A904F1080704AE4FF01F0802220091CA
:1089300038463346CDF804801146FFF745FC002841
:108940007FF426AF03AB0093CDF80480334638465E
:1089500010220621FFF738FC00287FF419AF50E7FA
:1089600003AA04F1100704AE4FF01F080092384626
:108970003346CDF8048002220321FFF725FC0028AE
:108980007FF406AF03AB0093CDF80480334638463E
:1089900010220721FFF718FC00287FF4F9AE34E716
:1089A00003AA04F1180704AE4FF01F0800923846DE
:1089B0003346CDF8048002221421FFF705FC00287D
:1089C0007FF4E6AE03AB0093CDF80480334638461F
:1089D00010221521FFF7F8FB00287FF4D9AE18E725
:1089E0002288012A3FF4D3AEBDF80C20901C1F282A
:1089F0003FF67AAE012B05D16378134402331F2B67
:108A00003FF672AEC2F11D0314A99BB204AE21F869
:108A1000203D3044FFF7D4FB00287FF4B9AE227824
:108A2000022A00F08780012A00F08B80ADF83030F8
:108A30001A460820FE2A3FF657AEBDF80C3014AC9B
:108A4000591CE71814FA81F102331344013207F874
:108A5000402C3446ADF80C3001F8400C9DE60CAFCC
:108A60003846FFF7A7FB00287FF492AEBDF80C3024
:108A700014A903F1010E9A1C11FA8EFE0B4492B256
:108A800004AEB01808211B2603F8401CADF80C20DA
:108A90000DF1310106220EF8406C01F02DFCBDF8FD
:108AA0000C209DF83010931D11F0FE019BB23BD1BC
:108AB00014A8034403F8401CD31DA2789BB2ADF860
:108AC0000C304AB9E278002A3FF407AED81C1F28C0
:108AD00019463FF609AEECE504331F2B3FF604AE12
